{
  "address": "0x633bD2d4E8F319E36823cb78Ce7aEec9260583bC",
  "abi": [
    {
      "inputs": [
        {
          "internalType": "address",
          "name": "vrfCoordinatorV2Address",
          "type": "address"
        },
        {
          "internalType": "uint64",
          "name": "subscriptionId",
          "type": "uint64"
        },
        {
          "internalType": "uint32",
          "name": "callbackGasLimit",
          "type": "uint32"
        },
        {
          "internalType": "bytes32",
          "name": "gasLane",
          "type": "bytes32"
        }
      ],
      "stateMutability": "nonpayable",
      "type": "constructor"
    },
    {
      "inputs": [
        {
          "internalType": "address",
          "name": "have",
          "type": "address"
        },
        {
          "internalType": "address",
          "name": "want",
          "type": "address"
        }
      ],
      "name": "OnlyCoordinatorCanFulfill",
      "type": "error"
    },
    {
      "anonymous": false,
      "inputs": [
        {
          "indexed": true,
          "internalType": "address",
          "name": "from",
          "type": "address"
        },
        {
          "indexed": true,
          "internalType": "address",
          "name": "to",
          "type": "address"
        }
      ],
      "name": "OwnershipTransferRequested",
      "type": "event"
    },
    {
      "anonymous": false,
      "inputs": [
        {
          "indexed": true,
          "internalType": "address",
          "name": "from",
          "type": "address"
        },
        {
          "indexed": true,
          "internalType": "address",
          "name": "to",
          "type": "address"
        }
      ],
      "name": "OwnershipTransferred",
      "type": "event"
    },
    {
      "anonymous": false,
      "inputs": [
        {
          "indexed": false,
          "internalType": "uint256",
          "name": "requestId",
          "type": "uint256"
        },
        {
          "indexed": false,
          "internalType": "uint256[]",
          "name": "randomWords",
          "type": "uint256[]"
        }
      ],
      "name": "RequestFulfilled",
      "type": "event"
    },
    {
      "anonymous": false,
      "inputs": [
        {
          "indexed": false,
          "internalType": "uint256",
          "name": "requestId",
          "type": "uint256"
        },
        {
          "indexed": false,
          "internalType": "uint32",
          "name": "numWords",
          "type": "uint32"
        }
      ],
      "name": "RequestSent",
      "type": "event"
    },
    {
      "inputs": [],
      "name": "acceptOwnership",
      "outputs": [],
      "stateMutability": "nonpayable",
      "type": "function"
    },
    {
      "inputs": [],
      "name": "getCallbackGasLimit",
      "outputs": [
        {
          "internalType": "uint256",
          "name": "",
          "type": "uint256"
        }
      ],
      "stateMutability": "view",
      "type": "function"
    },
    {
      "inputs": [],
      "name": "getLastRequestId",
      "outputs": [
        {
          "internalType": "uint256",
          "name": "",
          "type": "uint256"
        }
      ],
      "stateMutability": "view",
      "type": "function"
    },
    {
      "inputs": [],
      "name": "getNumWords",
      "outputs": [
        {
          "internalType": "uint256",
          "name": "",
          "type": "uint256"
        }
      ],
      "stateMutability": "pure",
      "type": "function"
    },
    {
      "inputs": [],
      "name": "getRequestIds",
      "outputs": [
        {
          "internalType": "uint256[]",
          "name": "",
          "type": "uint256[]"
        }
      ],
      "stateMutability": "view",
      "type": "function"
    },
    {
      "inputs": [
        {
          "internalType": "uint256",
          "name": "_requestId",
          "type": "uint256"
        }
      ],
      "name": "getRequestStatus",
      "outputs": [
        {
          "internalType": "bool",
          "name": "fulfilled",
          "type": "bool"
        },
        {
          "internalType": "uint256[]",
          "name": "randomWords",
          "type": "uint256[]"
        }
      ],
      "stateMutability": "view",
      "type": "function"
    },
    {
      "inputs": [],
      "name": "getRequiredConfirmations",
      "outputs": [
        {
          "internalType": "uint256",
          "name": "",
          "type": "uint256"
        }
      ],
      "stateMutability": "pure",
      "type": "function"
    },
    {
      "inputs": [],
      "name": "getVRFCoordinatorV2Address",
      "outputs": [
        {
          "internalType": "address",
          "name": "",
          "type": "address"
        }
      ],
      "stateMutability": "view",
      "type": "function"
    },
    {
      "inputs": [],
      "name": "owner",
      "outputs": [
        {
          "internalType": "address",
          "name": "",
          "type": "address"
        }
      ],
      "stateMutability": "view",
      "type": "function"
    },
    {
      "inputs": [
        {
          "internalType": "uint256",
          "name": "requestId",
          "type": "uint256"
        },
        {
          "internalType": "uint256[]",
          "name": "randomWords",
          "type": "uint256[]"
        }
      ],
      "name": "rawFulfillRandomWords",
      "outputs": [],
      "stateMutability": "nonpayable",
      "type": "function"
    },
    {
      "inputs": [],
      "name": "requestRandomWords",
      "outputs": [
        {
          "internalType": "uint256",
          "name": "requestId",
          "type": "uint256"
        }
      ],
      "stateMutability": "nonpayable",
      "type": "function"
    },
    {
      "inputs": [
        {
          "internalType": "uint256",
          "name": "",
          "type": "uint256"
        }
      ],
      "name": "s_requests",
      "outputs": [
        {
          "internalType": "bool",
          "name": "fulfilled",
          "type": "bool"
        },
        {
          "internalType": "bool",
          "name": "exists",
          "type": "bool"
        }
      ],
      "stateMutability": "view",
      "type": "function"
    },
    {
      "inputs": [
        {
          "internalType": "address",
          "name": "to",
          "type": "address"
        }
      ],
      "name": "transferOwnership",
      "outputs": [],
      "stateMutability": "nonpayable",
      "type": "function"
    }
  ],
  "transactionHash": "0x1d3942fc08036524cfcc1c94c3da2d898808ca6b50eb8b999ad63cbe0a4dfbec",
  "args": [
    "0x2Ca8E0C643bDe4C2E08ab1fA0da3401AdAD7734D",
    "10473",
    "500000",
    "0x79d3d8832d904592c0bf9818b621522c988bb8b0c05cdc3b15aea1b6e8db0c15"
  ],
  "numDeployments": 2,
  "solcInputHash": "b52905325a95c1a31966cca4d261bc96",
  "bytecode": "0x6101206040523480156200001257600080fd5b5060405162001a9838038062001a9883398181016040528101906200003891906200043f565b33806000868073ffffffffffffffffffffffffffffffffffffffff1660808173ffffffffffffffffffffffffffffffffffffffff168152505050600073ffffffffffffffffffffffffffffffffffffffff168273ffffffffffffffffffffffffffffffffffffffff1603620000e4576040517f08c379a0000000000000000000000000000000000000000000000000000000008152600401620000db9062000512565b60405180910390fd5b816000806101000a81548173ffffffffffffffffffffffffffffffffffffffff021916908373ffffffffffffffffffffffffffffffffffffffff160217905550600073ffffffffffffffffffffffffffffffffffffffff168173ffffffffffffffffffffffffffffffffffffffff16146200016b576200016a81620001e560201b60201c565b5b5050508373ffffffffffffffffffffffffffffffffffffffff1660a08173ffffffffffffffffffffffffffffffffffffffff16815250508267ffffffffffffffff1660e08167ffffffffffffffff16815250508163ffffffff1660c08163ffffffff168152505080610100818152505050505050620005a6565b3373ffffffffffffffffffffffffffffffffffffffff168173ffffffffffffffffffffffffffffffffffffffff160362000256576040517f08c379a00000000000000000000000000000000000000000000000000000000081526004016200024d9062000584565b60405180910390fd5b80600160006101000a81548173ffffffffffffffffffffffffffffffffffffffff021916908373ffffffffffffffffffffffffffffffffffffffff1602179055508073ffffffffffffffffffffffffffffffffffffffff1660008054906101000a900473ffffffffffffffffffffffffffffffffffffffff1673ffffffffffffffffffffffffffffffffffffffff167fed8889f560326eb138920d842192f0eb3dd22b4f139c87a2c57538e05bae127860405160405180910390a350565b600080fd5b600073ffffffffffffffffffffffffffffffffffffffff82169050919050565b6000620003468262000319565b9050919050565b620003588162000339565b81146200036457600080fd5b50565b60008151905062000378816200034d565b92915050565b600067ffffffffffffffff82169050919050565b6200039d816200037e565b8114620003a957600080fd5b50565b600081519050620003bd8162000392565b92915050565b600063ffffffff82169050919050565b620003de81620003c3565b8114620003ea57600080fd5b50565b600081519050620003fe81620003d3565b92915050565b6000819050919050565b620004198162000404565b81146200042557600080fd5b50565b60008151905062000439816200040e565b92915050565b600080600080608085870312156200045c576200045b62000314565b5b60006200046c8782880162000367565b94505060206200047f87828801620003ac565b93505060406200049287828801620003ed565b9250506060620004a58782880162000428565b91505092959194509250565b600082825260208201905092915050565b7f43616e6e6f7420736574206f776e657220746f207a65726f0000000000000000600082015250565b6000620004fa601883620004b1565b91506200050782620004c2565b602082019050919050565b600060208201905081810360008301526200052d81620004eb565b9050919050565b7f43616e6e6f74207472616e7366657220746f2073656c66000000000000000000600082015250565b60006200056c601783620004b1565b9150620005798262000534565b602082019050919050565b600060208201905081810360008301526200059f816200055d565b9050919050565b60805160a05160c05160e05161010051611498620006006000396000610743015260006107640152600081816106d10152610787015260008181610707015261096f01526000818161027401526102c801526114986000f3fe608060405234801561001057600080fd5b50600436106100cf5760003560e01c8063a168fa891161008c578063de8be8e711610066578063de8be8e7146101f2578063e0c8628914610210578063f2fde38b1461022e578063f9b4032e1461024a576100cf565b8063a168fa8914610172578063ac33a273146101a3578063d8a4676f146101c1576100cf565b806319c2b4c3146100d45780631fe543e3146100f257806324cb76041461010e57806353a2c19a1461012c57806379ba50971461014a5780638da5cb5b14610154575b600080fd5b6100dc610268565b6040516100e99190610ccc565b60405180910390f35b61010c60048036038101906101079190610e80565b610272565b005b610116610332565b6040516101239190610ccc565b60405180910390f35b61013461033f565b6040516101419190610ccc565b60405180910390f35b61015261034e565b005b61015c6104e3565b6040516101699190610f1d565b60405180910390f35b61018c60048036038101906101879190610f38565b61050c565b60405161019a929190610f80565b60405180910390f35b6101ab61054a565b6040516101b89190611067565b60405180910390f35b6101db60048036038101906101d69190610f38565b6105a2565b6040516101e9929190611089565b60405180910390f35b6101fa6106cd565b6040516102079190610ccc565b60405180910390f35b6102186106fb565b6040516102259190610ccc565b60405180910390f35b610248600480360381019061024391906110e5565b610957565b005b61025261096b565b60405161025f9190610f1d565b60405180910390f35b6000600354905090565b7f000000000000000000000000000000000000000000000000000000000000000073ffffffffffffffffffffffffffffffffffffffff163373ffffffffffffffffffffffffffffffffffffffff161461032457337f00000000000000000000000000000000000000000000000000000000000000006040517f1cf993f400000000000000000000000000000000000000000000000000000000815260040161031b929190611112565b60405180910390fd5b61032e8282610993565b5050565b6000600361ffff16905090565b6000600163ffffffff16905090565b600160009054906101000a900473ffffffffffffffffffffffffffffffffffffffff1673ffffffffffffffffffffffffffffffffffffffff163373ffffffffffffffffffffffffffffffffffffffff16146103de576040517f08c379a00000000000000000000000000000000000000000000000000000000081526004016103d590611198565b60405180910390fd5b60008060009054906101000a900473ffffffffffffffffffffffffffffffffffffffff169050336000806101000a81548173ffffffffffffffffffffffffffffffffffffffff021916908373ffffffffffffffffffffffffffffffffffffffff1602179055506000600160006101000a81548173ffffffffffffffffffffffffffffffffffffffff021916908373ffffffffffffffffffffffffffffffffffffffff1602179055503373ffffffffffffffffffffffffffffffffffffffff168173ffffffffffffffffffffffffffffffffffffffff167f8be0079c531659141344cd1fd0a4f28419497f9722a3daafe3b4186f6b6457e060405160405180910390a350565b60008060009054906101000a900473ffffffffffffffffffffffffffffffffffffffff16905090565b60046020528060005260406000206000915090508060000160009054906101000a900460ff16908060000160019054906101000a900460ff16905082565b6060600280548060200260200160405190810160405280929190818152602001828054801561059857602002820191906000526020600020905b815481526020019060010190808311610584575b5050505050905090565b600060606004600084815260200190815260200160002060000160019054906101000a900460ff16610609576040517f08c379a000000000000000000000000000000000000000000000000000000000815260040161060090611204565b60405180910390fd5b6000600460008581526020019081526020016000206040518060600160405290816000820160009054906101000a900460ff161515151581526020016000820160019054906101000a900460ff16151515158152602001600182018054806020026020016040519081016040528092919081815260200182805480156106ae57602002820191906000526020600020905b81548152602001906001019080831161069a575b5050505050815250509050806000015181604001519250925050915091565b60007f000000000000000000000000000000000000000000000000000000000000000063ffffffff16905090565b6000610705610a8d565b7f000000000000000000000000000000000000000000000000000000000000000073ffffffffffffffffffffffffffffffffffffffff16635d3b1d307f00000000000000000000000000000000000000000000000000000000000000007f000000000000000000000000000000000000000000000000000000000000000060037f000000000000000000000000000000000000000000000000000000000000000060016040518663ffffffff1660e01b81526004016107c895949392919061129c565b6020604051808303816000875af11580156107e7573d6000803e3d6000fd5b505050506040513d601f19601f8201168201806040525081019061080b9190611304565b90506040518060600160405280600015158152602001600115158152602001600067ffffffffffffffff81111561084557610844610d3d565b5b6040519080825280602002602001820160405280156108735781602001602082028036833780820191505090505b508152506004600083815260200190815260200160002060008201518160000160006101000a81548160ff02191690831515021790555060208201518160000160016101000a81548160ff02191690831515021790555060408201518160010190805190602001906108e6929190610c49565b509050506002819080600181540180825580915050600190039060005260206000200160009091909190915055806003819055507fcc58b13ad3eab50626c6a6300b1d139cd6ebb1688a7cced9461c2f7e762665ee81600160405161094c929190611331565b60405180910390a190565b61095f610a8d565b61096881610b1d565b50565b60007f0000000000000000000000000000000000000000000000000000000000000000905090565b6004600083815260200190815260200160002060000160019054906101000a900460ff166109f6576040517f08c379a00000000000000000000000000000000000000000000000000000000081526004016109ed90611204565b60405180910390fd5b60016004600084815260200190815260200160002060000160006101000a81548160ff02191690831515021790555080600460008481526020019081526020016000206001019080519060200190610a4f929190610c49565b507ffe2e2d779dba245964d4e3ef9b994be63856fd568bf7d3ca9e224755cb1bd54d8282604051610a8192919061135a565b60405180910390a15050565b60008054906101000a900473ffffffffffffffffffffffffffffffffffffffff1673ffffffffffffffffffffffffffffffffffffffff163373ffffffffffffffffffffffffffffffffffffffff1614610b1b576040517f08c379a0000000000000000000000000000000000000000000000000000000008152600401610b12906113d6565b60405180910390fd5b565b3373ffffffffffffffffffffffffffffffffffffffff168173ffffffffffffffffffffffffffffffffffffffff1603610b8b576040517f08c379a0000000000000000000000000000000000000000000000000000000008152600401610b8290611442565b60405180910390fd5b80600160006101000a81548173ffffffffffffffffffffffffffffffffffffffff021916908373ffffffffffffffffffffffffffffffffffffffff1602179055508073ffffffffffffffffffffffffffffffffffffffff1660008054906101000a900473ffffffffffffffffffffffffffffffffffffffff1673ffffffffffffffffffffffffffffffffffffffff167fed8889f560326eb138920d842192f0eb3dd22b4f139c87a2c57538e05bae127860405160405180910390a350565b828054828255906000526020600020908101928215610c85579160200282015b82811115610c84578251825591602001919060010190610c69565b5b509050610c929190610c96565b5090565b5b80821115610caf576000816000905550600101610c97565b5090565b6000819050919050565b610cc681610cb3565b82525050565b6000602082019050610ce16000830184610cbd565b92915050565b6000604051905090565b600080fd5b600080fd5b610d0481610cb3565b8114610d0f57600080fd5b50565b600081359050610d2181610cfb565b92915050565b600080fd5b6000601f19601f8301169050919050565b7f4e487b7100000000000000000000000000000000000000000000000000000000600052604160045260246000fd5b610d7582610d2c565b810181811067ffffffffffffffff82111715610d9457610d93610d3d565b5b80604052505050565b6000610da7610ce7565b9050610db38282610d6c565b919050565b600067ffffffffffffffff821115610dd357610dd2610d3d565b5b602082029050602081019050919050565b600080fd5b6000610dfc610df784610db8565b610d9d565b90508083825260208201905060208402830185811115610e1f57610e1e610de4565b5b835b81811015610e485780610e348882610d12565b845260208401935050602081019050610e21565b5050509392505050565b600082601f830112610e6757610e66610d27565b5b8135610e77848260208601610de9565b91505092915050565b60008060408385031215610e9757610e96610cf1565b5b6000610ea585828601610d12565b925050602083013567ffffffffffffffff811115610ec657610ec5610cf6565b5b610ed285828601610e52565b9150509250929050565b600073ffffffffffffffffffffffffffffffffffffffff82169050919050565b6000610f0782610edc565b9050919050565b610f1781610efc565b82525050565b6000602082019050610f326000830184610f0e565b92915050565b600060208284031215610f4e57610f4d610cf1565b5b6000610f5c84828501610d12565b91505092915050565b60008115159050919050565b610f7a81610f65565b82525050565b6000604082019050610f956000830185610f71565b610fa26020830184610f71565b9392505050565b600081519050919050565b600082825260208201905092915050565b6000819050602082019050919050565b610fde81610cb3565b82525050565b6000610ff08383610fd5565b60208301905092915050565b6000602082019050919050565b600061101482610fa9565b61101e8185610fb4565b935061102983610fc5565b8060005b8381101561105a5781516110418882610fe4565b975061104c83610ffc565b92505060018101905061102d565b5085935050505092915050565b600060208201905081810360008301526110818184611009565b905092915050565b600060408201905061109e6000830185610f71565b81810360208301526110b08184611009565b90509392505050565b6110c281610efc565b81146110cd57600080fd5b50565b6000813590506110df816110b9565b92915050565b6000602082840312156110fb576110fa610cf1565b5b6000611109848285016110d0565b91505092915050565b60006040820190506111276000830185610f0e565b6111346020830184610f0e565b9392505050565b600082825260208201905092915050565b7f4d7573742062652070726f706f736564206f776e657200000000000000000000600082015250565b600061118260168361113b565b915061118d8261114c565b602082019050919050565b600060208201905081810360008301526111b181611175565b9050919050565b7f72657175657374206e6f7420666f756e64000000000000000000000000000000600082015250565b60006111ee60118361113b565b91506111f9826111b8565b602082019050919050565b6000602082019050818103600083015261121d816111e1565b9050919050565b6000819050919050565b61123781611224565b82525050565b600067ffffffffffffffff82169050919050565b61125a8161123d565b82525050565b600061ffff82169050919050565b61127781611260565b82525050565b600063ffffffff82169050919050565b6112968161127d565b82525050565b600060a0820190506112b1600083018861122e565b6112be6020830187611251565b6112cb604083018661126e565b6112d8606083018561128d565b6112e5608083018461128d565b9695505050505050565b6000815190506112fe81610cfb565b92915050565b60006020828403121561131a57611319610cf1565b5b6000611328848285016112ef565b91505092915050565b60006040820190506113466000830185610cbd565b611353602083018461128d565b9392505050565b600060408201905061136f6000830185610cbd565b81810360208301526113818184611009565b90509392505050565b7f4f6e6c792063616c6c61626c65206279206f776e657200000000000000000000600082015250565b60006113c060168361113b565b91506113cb8261138a565b602082019050919050565b600060208201905081810360008301526113ef816113b3565b9050919050565b7f43616e6e6f74207472616e7366657220746f2073656c66000000000000000000600082015250565b600061142c60178361113b565b9150611437826113f6565b602082019050919050565b6000602082019050818103600083015261145b8161141f565b905091905056fea2646970667358221220db20b98412d277bf64962b17bc3a464aee83f52dbba5d1ff4dcdd23a927382f264736f6c63430008110033",
  "devdoc": {
    "kind": "dev",
    "methods": {},
    "version": 1
  },
  "userdoc": {
    "kind": "user",
    "methods": {
      "acceptOwnership()": {
        "notice": "Allows an ownership transfer to be completed by the recipient."
      },
      "constructor": {
        "notice": "Network: Ethereum Goerli VRF Coordinator: 0x2Ca8E0C643bDe4C2E08ab1fA0da3401AdAD7734D"
      },
      "owner()": {
        "notice": "Get the current owner"
      },
      "transferOwnership(address)": {
        "notice": "Allows an owner to begin transferring ownership to a new address, pending."
      }
    },
    "version": 1
  },
  "storageLayout": {
    "storage": [
      {
        "astId": 27,
        "contract": "contracts/VRFV2Consumer.sol:VRFv2Consumer",
        "label": "s_owner",
        "offset": 0,
        "slot": "0",
        "type": "t_address"
      },
      {
        "astId": 29,
        "contract": "contracts/VRFV2Consumer.sol:VRFv2Consumer",
        "label": "s_pendingOwner",
        "offset": 0,
        "slot": "1",
        "type": "t_address"
      },
      {
        "astId": 376,
        "contract": "contracts/VRFV2Consumer.sol:VRFv2Consumer",
        "label": "s_requestIds",
        "offset": 0,
        "slot": "2",
        "type": "t_array(t_uint256)dyn_storage"
      },
      {
        "astId": 378,
        "contract": "contracts/VRFV2Consumer.sol:VRFv2Consumer",
        "label": "s_lastRequestId",
        "offset": 0,
        "slot": "3",
        "type": "t_uint256"
      },
      {
        "astId": 393,
        "contract": "contracts/VRFV2Consumer.sol:VRFv2Consumer",
        "label": "s_requests",
        "offset": 0,
        "slot": "4",
        "type": "t_mapping(t_uint256,t_struct(RequestStatus)388_storage)"
      }
    ],
    "types": {
      "t_address": {
        "encoding": "inplace",
        "label": "address",
        "numberOfBytes": "20"
      },
      "t_array(t_uint256)dyn_storage": {
        "base": "t_uint256",
        "encoding": "dynamic_array",
        "label": "uint256[]",
        "numberOfBytes": "32"
      },
      "t_bool": {
        "encoding": "inplace",
        "label": "bool",
        "numberOfBytes": "1"
      },
      "t_mapping(t_uint256,t_struct(RequestStatus)388_storage)": {
        "encoding": "mapping",
        "key": "t_uint256",
        "label": "mapping(uint256 => struct VRFv2Consumer.RequestStatus)",
        "numberOfBytes": "32",
        "value": "t_struct(RequestStatus)388_storage"
      },
      "t_struct(RequestStatus)388_storage": {
        "encoding": "inplace",
        "label": "struct VRFv2Consumer.RequestStatus",
        "members": [
          {
            "astId": 382,
            "contract": "contracts/VRFV2Consumer.sol:VRFv2Consumer",
            "label": "fulfilled",
            "offset": 0,
            "slot": "0",
            "type": "t_bool"
          },
          {
            "astId": 384,
            "contract": "contracts/VRFV2Consumer.sol:VRFv2Consumer",
            "label": "exists",
            "offset": 1,
            "slot": "0",
            "type": "t_bool"
          },
          {
            "astId": 387,
            "contract": "contracts/VRFV2Consumer.sol:VRFv2Consumer",
            "label": "randomWords",
            "offset": 0,
            "slot": "1",
            "type": "t_array(t_uint256)dyn_storage"
          }
        ],
        "numberOfBytes": "64"
      },
      "t_uint256": {
        "encoding": "inplace",
        "label": "uint256",
        "numberOfBytes": "32"
      }
    }
  }
}